{
  "_format": "hh-sol-artifact-1",
  "contractName": "Faucet",
  "sourceName": "contracts/Faucet.sol",
  "abi": [
    {
      "inputs": [
        {
          "internalType": "address",
          "name": "_tokenInstance",
          "type": "address"
        }
      ],
      "stateMutability": "nonpayable",
      "type": "constructor"
    },
    {
      "anonymous": false,
      "inputs": [
        {
          "indexed": true,
          "internalType": "address",
          "name": "previousOwner",
          "type": "address"
        },
        {
          "indexed": true,
          "internalType": "address",
          "name": "newOwner",
          "type": "address"
        }
      ],
      "name": "OwnershipTransferred",
      "type": "event"
    },
    {
      "inputs": [
        {
          "internalType": "address",
          "name": "_address",
          "type": "address"
        },
        {
          "internalType": "uint256",
          "name": "tokenAmount",
          "type": "uint256"
        }
      ],
      "name": "allowedToWithdraw",
      "outputs": [
        {
          "internalType": "bool",
          "name": "",
          "type": "bool"
        }
      ],
      "stateMutability": "view",
      "type": "function"
    },
    {
      "inputs": [],
      "name": "owner",
      "outputs": [
        {
          "internalType": "address",
          "name": "",
          "type": "address"
        }
      ],
      "stateMutability": "view",
      "type": "function"
    },
    {
      "inputs": [],
      "name": "renounceOwnership",
      "outputs": [],
      "stateMutability": "nonpayable",
      "type": "function"
    },
    {
      "inputs": [
        {
          "internalType": "address",
          "name": "_receiver",
          "type": "address"
        },
        {
          "internalType": "uint256",
          "name": "tokenAmount",
          "type": "uint256"
        }
      ],
      "name": "requestTokens",
      "outputs": [],
      "stateMutability": "nonpayable",
      "type": "function"
    },
    {
      "inputs": [],
      "name": "tokenInstance",
      "outputs": [
        {
          "internalType": "contract ERC20",
          "name": "",
          "type": "address"
        }
      ],
      "stateMutability": "view",
      "type": "function"
    },
    {
      "inputs": [],
      "name": "tokenName",
      "outputs": [
        {
          "internalType": "string",
          "name": "",
          "type": "string"
        }
      ],
      "stateMutability": "view",
      "type": "function"
    },
    {
      "inputs": [
        {
          "internalType": "address",
          "name": "newOwner",
          "type": "address"
        }
      ],
      "name": "transferOwnership",
      "outputs": [],
      "stateMutability": "nonpayable",
      "type": "function"
    },
    {
      "inputs": [],
      "name": "waitTime",
      "outputs": [
        {
          "internalType": "uint256",
          "name": "",
          "type": "uint256"
        }
      ],
      "stateMutability": "view",
      "type": "function"
    }
  ],
  "bytecode": "0x60806040523480156200001157600080fd5b5060405162000f8038038062000f808339818101604052810190620000379190620001bd565b620000576200004b620000da60201b60201c565b620000e260201b60201c565b600073ffffffffffffffffffffffffffffffffffffffff168173ffffffffffffffffffffffffffffffffffffffff1614156200009257600080fd5b80600160006101000a81548173ffffffffffffffffffffffffffffffffffffffff021916908373ffffffffffffffffffffffffffffffffffffffff1602179055505062000237565b600033905090565b60008060009054906101000a900473ffffffffffffffffffffffffffffffffffffffff169050816000806101000a81548173ffffffffffffffffffffffffffffffffffffffff021916908373ffffffffffffffffffffffffffffffffffffffff1602179055508173ffffffffffffffffffffffffffffffffffffffff168173ffffffffffffffffffffffffffffffffffffffff167f8be0079c531659141344cd1fd0a4f28419497f9722a3daafe3b4186f6b6457e060405160405180910390a35050565b600081519050620001b7816200021d565b92915050565b600060208284031215620001d057600080fd5b6000620001e084828501620001a6565b91505092915050565b6000620001f682620001fd565b9050919050565b600073ffffffffffffffffffffffffffffffffffffffff82169050919050565b6200022881620001e9565b81146200023457600080fd5b50565b610d3980620002476000396000f3fe608060405234801561001057600080fd5b50600436106100885760003560e01c8063af4215641161005b578063af421564146100f1578063c8512ef71461010d578063ccca123b1461013d578063f2fde38b1461015b57610088565b8063658030b31461008d5780636c02a931146100ab578063715018a6146100c95780638da5cb5b146100d3575b600080fd5b610095610177565b6040516100a291906109a7565b60405180910390f35b6100b361019d565b6040516100c091906109c2565b60405180910390f35b6100d1610249565b005b6100db6102d1565b6040516100e89190610948565b60405180910390f35b61010b600480360381019061010691906107e7565b6102fa565b005b610127600480360381019061012291906107e7565b61048e565b604051610134919061098c565b60405180910390f35b61014561054d565b6040516101529190610a24565b60405180910390f35b610175600480360381019061017091906107be565b610553565b005b600160009054906101000a900473ffffffffffffffffffffffffffffffffffffffff1681565b6060600160009054906101000a900473ffffffffffffffffffffffffffffffffffffffff1673ffffffffffffffffffffffffffffffffffffffff166306fdde036040518163ffffffff1660e01b815260040160006040518083038186803b15801561020757600080fd5b505afa15801561021b573d6000803e3d6000fd5b505050506040513d6000823e3d601f19601f82011682018060405250810190610244919061084c565b905090565b61025161064b565b73ffffffffffffffffffffffffffffffffffffffff1661026f6102d1565b73ffffffffffffffffffffffffffffffffffffffff16146102c5576040517f08c379a00000000000000000000000000000000000000000000000000000000081526004016102bc90610a04565b60405180910390fd5b6102cf6000610653565b565b60008060009054906101000a900473ffffffffffffffffffffffffffffffffffffffff16905090565b61030261064b565b73ffffffffffffffffffffffffffffffffffffffff166103206102d1565b73ffffffffffffffffffffffffffffffffffffffff1614610376576040517f08c379a000000000000000000000000000000000000000000000000000000000815260040161036d90610a04565b60405180910390fd5b610380828261048e565b61038957600080fd5b600160009054906101000a900473ffffffffffffffffffffffffffffffffffffffff1673ffffffffffffffffffffffffffffffffffffffff1663a9059cbb83836040518363ffffffff1660e01b81526004016103e6929190610963565b602060405180830381600087803b15801561040057600080fd5b505af1158015610414573d6000803e3d6000fd5b505050506040513d601f19601f820116820180604052508101906104389190610823565b50610708426104479190610ab1565b600260008473ffffffffffffffffffffffffffffffffffffffff1673ffffffffffffffffffffffffffffffffffffffff168152602001908152602001600020819055505050565b600060038211156104a25760009050610547565b6000600260008573ffffffffffffffffffffffffffffffffffffffff1673ffffffffffffffffffffffffffffffffffffffff1681526020019081526020016000205414156104f35760019050610547565b600260008473ffffffffffffffffffffffffffffffffffffffff1673ffffffffffffffffffffffffffffffffffffffff1681526020019081526020016000205442106105425760019050610547565b600090505b92915050565b61070881565b61055b61064b565b73ffffffffffffffffffffffffffffffffffffffff166105796102d1565b73ffffffffffffffffffffffffffffffffffffffff16146105cf576040517f08c379a00000000000000000000000000000000000000000000000000000000081526004016105c690610a04565b60405180910390fd5b600073ffffffffffffffffffffffffffffffffffffffff168173ffffffffffffffffffffffffffffffffffffffff16141561063f576040517f08c379a0000000000000000000000000000000000000000000000000000000008152600401610636906109e4565b60405180910390fd5b61064881610653565b50565b600033905090565b60008060009054906101000a900473ffffffffffffffffffffffffffffffffffffffff169050816000806101000a81548173ffffffffffffffffffffffffffffffffffffffff021916908373ffffffffffffffffffffffffffffffffffffffff1602179055508173ffffffffffffffffffffffffffffffffffffffff168173ffffffffffffffffffffffffffffffffffffffff167f8be0079c531659141344cd1fd0a4f28419497f9722a3daafe3b4186f6b6457e060405160405180910390a35050565b600061072a61072584610a64565b610a3f565b90508281526020810184848401111561074257600080fd5b61074d848285610b73565b509392505050565b60008135905061076481610cbe565b92915050565b60008151905061077981610cd5565b92915050565b600082601f83011261079057600080fd5b81516107a0848260208601610717565b91505092915050565b6000813590506107b881610cec565b92915050565b6000602082840312156107d057600080fd5b60006107de84828501610755565b91505092915050565b600080604083850312156107fa57600080fd5b600061080885828601610755565b9250506020610819858286016107a9565b9150509250929050565b60006020828403121561083557600080fd5b60006108438482850161076a565b91505092915050565b60006020828403121561085e57600080fd5b600082015167ffffffffffffffff81111561087857600080fd5b6108848482850161077f565b91505092915050565b61089681610b07565b82525050565b6108a581610b19565b82525050565b6108b481610b4f565b82525050565b60006108c582610a95565b6108cf8185610aa0565b93506108df818560208601610b73565b6108e881610c35565b840191505092915050565b6000610900602683610aa0565b915061090b82610c46565b604082019050919050565b6000610923602083610aa0565b915061092e82610c95565b602082019050919050565b61094281610b45565b82525050565b600060208201905061095d600083018461088d565b92915050565b6000604082019050610978600083018561088d565b6109856020830184610939565b9392505050565b60006020820190506109a1600083018461089c565b92915050565b60006020820190506109bc60008301846108ab565b92915050565b600060208201905081810360008301526109dc81846108ba565b905092915050565b600060208201905081810360008301526109fd816108f3565b9050919050565b60006020820190508181036000830152610a1d81610916565b9050919050565b6000602082019050610a396000830184610939565b92915050565b6000610a49610a5a565b9050610a558282610ba6565b919050565b6000604051905090565b600067ffffffffffffffff821115610a7f57610a7e610c06565b5b610a8882610c35565b9050602081019050919050565b600081519050919050565b600082825260208201905092915050565b6000610abc82610b45565b9150610ac783610b45565b9250827fffffffffffffffffffffffffffffffffffffffffffffffffffffffffffffffff03821115610afc57610afb610bd7565b5b828201905092915050565b6000610b1282610b25565b9050919050565b60008115159050919050565b600073ffffffffffffffffffffffffffffffffffffffff82169050919050565b6000819050919050565b6000610b5a82610b61565b9050919050565b6000610b6c82610b25565b9050919050565b60005b83811015610b91578082015181840152602081019050610b76565b83811115610ba0576000848401525b50505050565b610baf82610c35565b810181811067ffffffffffffffff82111715610bce57610bcd610c06565b5b80604052505050565b7f4e487b7100000000000000000000000000000000000000000000000000000000600052601160045260246000fd5b7f4e487b7100000000000000000000000000000000000000000000000000000000600052604160045260246000fd5b6000601f19601f8301169050919050565b7f4f776e61626c653a206e6577206f776e657220697320746865207a65726f206160008201527f6464726573730000000000000000000000000000000000000000000000000000602082015250565b7f4f776e61626c653a2063616c6c6572206973206e6f7420746865206f776e6572600082015250565b610cc781610b07565b8114610cd257600080fd5b50565b610cde81610b19565b8114610ce957600080fd5b50565b610cf581610b45565b8114610d0057600080fd5b5056fea26469706673582212208838c7c26b7e60f5fcbe1b7a53b8bb03e673144bc7fffcc642ace03ddcf42da664736f6c63430008040033",
  "linkReferences": {},
  "deployedLinkReferences": {}
}